{
  "contractName": "Mansions",
  "abi": [
    {
      "constant": true,
      "inputs": [
        {
          "name": "interfaceId",
          "type": "bytes4"
        }
      ],
      "name": "supportsInterface",
      "outputs": [
        {
          "name": "",
          "type": "bool"
        }
      ],
      "payable": false,
      "stateMutability": "view",
      "type": "function"
    },
    {
      "constant": true,
      "inputs": [],
      "name": "name",
      "outputs": [
        {
          "name": "",
          "type": "string"
        }
      ],
      "payable": false,
      "stateMutability": "view",
      "type": "function"
    },
    {
      "constant": true,
      "inputs": [
        {
          "name": "tokenId",
          "type": "uint256"
        }
      ],
      "name": "getApproved",
      "outputs": [
        {
          "name": "",
          "type": "address"
        }
      ],
      "payable": false,
      "stateMutability": "view",
      "type": "function"
    },
    {
      "constant": false,
      "inputs": [
        {
          "name": "to",
          "type": "address"
        },
        {
          "name": "tokenId",
          "type": "uint256"
        }
      ],
      "name": "approve",
      "outputs": [],
      "payable": false,
      "stateMutability": "nonpayable",
      "type": "function"
    },
    {
      "constant": false,
      "inputs": [
        {
          "name": "from",
          "type": "address"
        },
        {
          "name": "to",
          "type": "address"
        },
        {
          "name": "tokenId",
          "type": "uint256"
        }
      ],
      "name": "transferFrom",
      "outputs": [],
      "payable": false,
      "stateMutability": "nonpayable",
      "type": "function"
    },
    {
      "constant": true,
      "inputs": [],
      "name": "Id",
      "outputs": [
        {
          "name": "",
          "type": "uint32"
        }
      ],
      "payable": false,
      "stateMutability": "view",
      "type": "function"
    },
    {
      "constant": false,
      "inputs": [
        {
          "name": "from",
          "type": "address"
        },
        {
          "name": "to",
          "type": "address"
        },
        {
          "name": "tokenId",
          "type": "uint256"
        }
      ],
      "name": "safeTransferFrom",
      "outputs": [],
      "payable": false,
      "stateMutability": "nonpayable",
      "type": "function"
    },
    {
      "constant": true,
      "inputs": [
        {
          "name": "",
          "type": "address"
        }
      ],
      "name": "MDTrack",
      "outputs": [
        {
          "name": "",
          "type": "uint32"
        }
      ],
      "payable": false,
      "stateMutability": "view",
      "type": "function"
    },
    {
      "constant": true,
      "inputs": [
        {
          "name": "tokenId",
          "type": "uint256"
        }
      ],
      "name": "ownerOf",
      "outputs": [
        {
          "name": "",
          "type": "address"
        }
      ],
      "payable": false,
      "stateMutability": "view",
      "type": "function"
    },
    {
      "constant": true,
      "inputs": [],
      "name": "baseURI",
      "outputs": [
        {
          "name": "",
          "type": "string"
        }
      ],
      "payable": false,
      "stateMutability": "view",
      "type": "function"
    },
    {
      "constant": true,
      "inputs": [
        {
          "name": "owner",
          "type": "address"
        }
      ],
      "name": "balanceOf",
      "outputs": [
        {
          "name": "",
          "type": "uint256"
        }
      ],
      "payable": false,
      "stateMutability": "view",
      "type": "function"
    },
    {
      "constant": true,
      "inputs": [],
      "name": "symbol",
      "outputs": [
        {
          "name": "",
          "type": "string"
        }
      ],
      "payable": false,
      "stateMutability": "view",
      "type": "function"
    },
    {
      "constant": false,
      "inputs": [
        {
          "name": "to",
          "type": "address"
        },
        {
          "name": "approved",
          "type": "bool"
        }
      ],
      "name": "setApprovalForAll",
      "outputs": [],
      "payable": false,
      "stateMutability": "nonpayable",
      "type": "function"
    },
    {
      "constant": false,
      "inputs": [
        {
          "name": "from",
          "type": "address"
        },
        {
          "name": "to",
          "type": "address"
        },
        {
          "name": "tokenId",
          "type": "uint256"
        },
        {
          "name": "_data",
          "type": "bytes"
        }
      ],
      "name": "safeTransferFrom",
      "outputs": [],
      "payable": false,
      "stateMutability": "nonpayable",
      "type": "function"
    },
    {
      "constant": true,
      "inputs": [
        {
          "name": "tokenId",
          "type": "uint256"
        }
      ],
      "name": "tokenURI",
      "outputs": [
        {
          "name": "",
          "type": "string"
        }
      ],
      "payable": false,
      "stateMutability": "view",
      "type": "function"
    },
    {
      "constant": true,
      "inputs": [
        {
          "name": "owner",
          "type": "address"
        },
        {
          "name": "operator",
          "type": "address"
        }
      ],
      "name": "isApprovedForAll",
      "outputs": [
        {
          "name": "",
          "type": "bool"
        }
      ],
      "payable": false,
      "stateMutability": "view",
      "type": "function"
    },
    {
      "inputs": [],
      "payable": true,
      "stateMutability": "payable",
      "type": "constructor"
    },
    {
      "anonymous": false,
      "inputs": [
        {
          "indexed": true,
          "name": "from",
          "type": "address"
        },
        {
          "indexed": true,
          "name": "to",
          "type": "address"
        },
        {
          "indexed": true,
          "name": "tokenId",
          "type": "uint256"
        }
      ],
      "name": "Transfer",
      "type": "event"
    },
    {
      "anonymous": false,
      "inputs": [
        {
          "indexed": true,
          "name": "owner",
          "type": "address"
        },
        {
          "indexed": true,
          "name": "approved",
          "type": "address"
        },
        {
          "indexed": true,
          "name": "tokenId",
          "type": "uint256"
        }
      ],
      "name": "Approval",
      "type": "event"
    },
    {
      "anonymous": false,
      "inputs": [
        {
          "indexed": true,
          "name": "owner",
          "type": "address"
        },
        {
          "indexed": true,
          "name": "operator",
          "type": "address"
        },
        {
          "indexed": false,
          "name": "approved",
          "type": "bool"
        }
      ],
      "name": "ApprovalForAll",
      "type": "event"
    },
    {
      "constant": false,
      "inputs": [
        {
          "name": "receiver",
          "type": "address"
        },
        {
          "name": "metadata",
          "type": "string"
        }
      ],
      "name": "createNFT",
      "outputs": [
        {
          "name": "",
          "type": "uint32"
        }
      ],
      "payable": false,
      "stateMutability": "nonpayable",
      "type": "function"
    },
    {
      "constant": false,
      "inputs": [
        {
          "name": "sender",
          "type": "address"
        },
        {
          "name": "receiver",
          "type": "address"
        },
        {
          "name": "transId",
          "type": "uint32"
        },
        {
          "name": "metadata",
          "type": "string"
        }
      ],
      "name": "transferNFT",
      "outputs": [],
      "payable": false,
      "stateMutability": "nonpayable",
      "type": "function"
    }
  ],
  "bytecode": "0x60806040526040518060400160405280600e81526020017f4d616e73696f6e7320546f656b6e0000000000000000000000000000000000008152506040518060400160405280600381526020017f4d544e0000000000000000000000000000000000000000000000000000000000815250620000886301ffc9a760e01b6200011460201b60201c565b620000a06380ac58cd60e01b6200011460201b60201c565b8160059080519060200190620000b89291906200021f565b508060069080519060200190620000d19291906200021f565b50620000ea635b5e139f60e01b6200011460201b60201c565b50506000600960006101000a81548163ffffffff021916908363ffffffff160217905550620002ce565b63ffffffff60e01b817bffffffffffffffffffffffffffffffffffffffffffffffffffffffff191614151515620001b3576040517f08c379a000000000000000000000000000000000000000000000000000000000815260040180806020018281038252601c8152602001807f4552433136353a20696e76616c696420696e746572666163652069640000000081525060200191505060405180910390fd5b6001600080837bffffffffffffffffffffffffffffffffffffffffffffffffffffffff19167bffffffffffffffffffffffffffffffffffffffffffffffffffffffff1916815260200190815260200160002060006101000a81548160ff02191690831515021790555050565b828054600181600116156101000203166002900490600052602060002090601f016020900481019282601f106200026257805160ff191683800117855562000293565b8280016001018555821562000293579182015b828111156200029257825182559160200191906001019062000275565b5b509050620002a29190620002a6565b5090565b620002cb91905b80821115620002c7576000816000905550600101620002ad565b5090565b90565b6127ee80620002de6000396000f3fe608060405234801561001057600080fd5b50600436106101165760003560e01c80636c0360eb116100a2578063a561403311610071578063a561403314610645578063b88d4fde146106fe578063c87b56dd14610803578063e985e9c5146108aa578063fede6c291461092657610116565b80636c0360eb1461049757806370a082311461051a57806395d89b4114610572578063a22cb465146105f557610116565b806323b872dd116100e957806323b872dd146102bf57806339a090c91461032d57806342842e0e14610357578063461623ff146103c55780636352211e1461042957610116565b806301ffc9a71461011b57806306fdde0314610180578063081812fc14610203578063095ea7b314610271575b600080fd5b6101666004803603602081101561013157600080fd5b8101908080357bffffffffffffffffffffffffffffffffffffffffffffffffffffffff191690602001909291905050506109ef565b604051808215151515815260200191505060405180910390f35b610188610a56565b6040518080602001828103825283818151815260200191508051906020019080838360005b838110156101c85780820151818401526020810190506101ad565b50505050905090810190601f1680156101f55780820380516001836020036101000a031916815260200191505b509250505060405180910390f35b61022f6004803603602081101561021957600080fd5b8101908080359060200190929190505050610af8565b604051808273ffffffffffffffffffffffffffffffffffffffff1673ffffffffffffffffffffffffffffffffffffffff16815260200191505060405180910390f35b6102bd6004803603604081101561028757600080fd5b81019080803573ffffffffffffffffffffffffffffffffffffffff16906020019092919080359060200190929190505050610b95565b005b61032b600480360360608110156102d557600080fd5b81019080803573ffffffffffffffffffffffffffffffffffffffff169060200190929190803573ffffffffffffffffffffffffffffffffffffffff16906020019092919080359060200190929190505050610d80565b005b610335610df8565b604051808263ffffffff1663ffffffff16815260200191505060405180910390f35b6103c36004803603606081101561036d57600080fd5b81019080803573ffffffffffffffffffffffffffffffffffffffff169060200190929190803573ffffffffffffffffffffffffffffffffffffffff16906020019092919080359060200190929190505050610e0e565b005b610407600480360360208110156103db57600080fd5b81019080803573ffffffffffffffffffffffffffffffffffffffff169060200190929190505050610e2e565b604051808263ffffffff1663ffffffff16815260200191505060405180910390f35b6104556004803603602081101561043f57600080fd5b8101908080359060200190929190505050610e51565b604051808273ffffffffffffffffffffffffffffffffffffffff1673ffffffffffffffffffffffffffffffffffffffff16815260200191505060405180910390f35b61049f610f1b565b6040518080602001828103825283818151815260200191508051906020019080838360005b838110156104df5780820151818401526020810190506104c4565b50505050905090810190601f16801561050c5780820380516001836020036101000a031916815260200191505b509250505060405180910390f35b61055c6004803603602081101561053057600080fd5b81019080803573ffffffffffffffffffffffffffffffffffffffff169060200190929190505050610fbd565b6040518082815260200191505060405180910390f35b61057a611094565b6040518080602001828103825283818151815260200191508051906020019080838360005b838110156105ba57808201518184015260208101905061059f565b50505050905090810190601f1680156105e75780820380516001836020036101000a031916815260200191505b509250505060405180910390f35b6106436004803603604081101561060b57600080fd5b81019080803573ffffffffffffffffffffffffffffffffffffffff169060200190929190803515159060200190929190505050611136565b005b6106dc6004803603604081101561065b57600080fd5b81019080803573ffffffffffffffffffffffffffffffffffffffff1690602001909291908035906020019064010000000081111561069857600080fd5b8201836020820111156106aa57600080fd5b803590602001918460018302840111640100000000831117156106cc57600080fd5b90919293919293905050506112f0565b604051808263ffffffff1663ffffffff16815260200191505060405180910390f35b6108016004803603608081101561071457600080fd5b81019080803573ffffffffffffffffffffffffffffffffffffffff169060200190929190803573ffffffffffffffffffffffffffffffffffffffff169060200190929190803590602001909291908035906020019064010000000081111561077b57600080fd5b82018360208201111561078d57600080fd5b803590602001918460018302840111640100000000831117156107af57600080fd5b91908080601f016020809104026020016040519081016040528093929190818152602001838380828437600081840152601f19601f820116905080830192505050505050509192919290505050611441565b005b61082f6004803603602081101561081957600080fd5b81019080803590602001909291905050506114bb565b6040518080602001828103825283818151815260200191508051906020019080838360005b8381101561086f578082015181840152602081019050610854565b50505050905090810190601f16801561089c5780820380516001836020036101000a031916815260200191505b509250505060405180910390f35b61090c600480360360408110156108c057600080fd5b81019080803573ffffffffffffffffffffffffffffffffffffffff169060200190929190803573ffffffffffffffffffffffffffffffffffffffff1690602001909291905050506116c1565b604051808215151515815260200191505060405180910390f35b6109ed6004803603608081101561093c57600080fd5b81019080803573ffffffffffffffffffffffffffffffffffffffff169060200190929190803573ffffffffffffffffffffffffffffffffffffffff169060200190929190803563ffffffff169060200190929190803590602001906401000000008111156109a957600080fd5b8201836020820111156109bb57600080fd5b803590602001918460018302840111640100000000831117156109dd57600080fd5b9091929391929390505050611755565b005b6000806000837bffffffffffffffffffffffffffffffffffffffffffffffffffffffff19167bffffffffffffffffffffffffffffffffffffffffffffffffffffffff1916815260200190815260200160002060009054906101000a900460ff169050919050565b606060058054600181600116156101000203166002900480601f016020809104026020016040519081016040528092919081815260200182805460018160011615610100020316600290048015610aee5780601f10610ac357610100808354040283529160200191610aee565b820191906000526020600020905b815481529060010190602001808311610ad157829003601f168201915b5050505050905090565b6000610b0382611883565b1515610b5a576040517f08c379a000000000000000000000000000000000000000000000000000000000815260040180806020018281038252602c8152602001806126c1602c913960400191505060405180910390fd5b6002600083815260200190815260200160002060009054906101000a900473ffffffffffffffffffffffffffffffffffffffff169050919050565b6000610ba082610e51565b90508073ffffffffffffffffffffffffffffffffffffffff168373ffffffffffffffffffffffffffffffffffffffff1614151515610c29576040517f08c379a00000000000000000000000000000000000000000000000000000000081526004018080602001828103825260218152602001806127716021913960400191505060405180910390fd5b8073ffffffffffffffffffffffffffffffffffffffff16610c486118f5565b73ffffffffffffffffffffffffffffffffffffffff161480610c775750610c7681610c716118f5565b6116c1565b5b1515610cce576040517f08c379a00000000000000000000000000000000000000000000000000000000081526004018080602001828103825260388152602001806126366038913960400191505060405180910390fd5b826002600084815260200190815260200160002060006101000a81548173ffffffffffffffffffffffffffffffffffffffff021916908373ffffffffffffffffffffffffffffffffffffffff160217905550818373ffffffffffffffffffffffffffffffffffffffff168273ffffffffffffffffffffffffffffffffffffffff167f8c5be1e5ebec7d5bd14f71427d1e84f3dd0314c0f7b2291e5b200ac8c7c3b92560405160405180910390a4505050565b610d91610d8b6118f5565b826118fd565b1515610de8576040517f08c379a00000000000000000000000000000000000000000000000000000000081526004018080602001828103825260318152602001806127926031913960400191505060405180910390fd5b610df38383836119f3565b505050565b600960009054906101000a900463ffffffff1681565b610e2983838360405180602001604052806000815250611441565b505050565b600a6020528060005260406000206000915054906101000a900463ffffffff1681565b6000806001600084815260200190815260200160002060009054906101000a900473ffffffffffffffffffffffffffffffffffffffff169050600073ffffffffffffffffffffffffffffffffffffffff168173ffffffffffffffffffffffffffffffffffffffff1614151515610f12576040517f08c379a00000000000000000000000000000000000000000000000000000000081526004018080602001828103825260298152602001806126986029913960400191505060405180910390fd5b80915050919050565b606060078054600181600116156101000203166002900480601f016020809104026020016040519081016040528092919081815260200182805460018160011615610100020316600290048015610fb35780601f10610f8857610100808354040283529160200191610fb3565b820191906000526020600020905b815481529060010190602001808311610f9657829003601f168201915b5050505050905090565b60008073ffffffffffffffffffffffffffffffffffffffff168273ffffffffffffffffffffffffffffffffffffffff1614151515611046576040517f08c379a000000000000000000000000000000000000000000000000000000000815260040180806020018281038252602a81526020018061266e602a913960400191505060405180910390fd5b61108d600360008473ffffffffffffffffffffffffffffffffffffffff1673ffffffffffffffffffffffffffffffffffffffff168152602001908152602001600020611c52565b9050919050565b606060068054600181600116156101000203166002900480601f01602080910402602001604051908101604052809291908181526020018280546001816001161561010002031660029004801561112c5780601f106111015761010080835404028352916020019161112c565b820191906000526020600020905b81548152906001019060200180831161110f57829003601f168201915b5050505050905090565b61113e6118f5565b73ffffffffffffffffffffffffffffffffffffffff168273ffffffffffffffffffffffffffffffffffffffff16141515156111e1576040517f08c379a00000000000000000000000000000000000000000000000000000000081526004018080602001828103825260198152602001807f4552433732313a20617070726f766520746f2063616c6c65720000000000000081525060200191505060405180910390fd5b80600460006111ee6118f5565b73ffffffffffffffffffffffffffffffffffffffff1673ffffffffffffffffffffffffffffffffffffffff16815260200190815260200160002060008473ffffffffffffffffffffffffffffffffffffffff1673ffffffffffffffffffffffffffffffffffffffff16815260200190815260200160002060006101000a81548160ff0219169083151502179055508173ffffffffffffffffffffffffffffffffffffffff1661129b6118f5565b73ffffffffffffffffffffffffffffffffffffffff167f17307eab39ab6107e8899845ad3d59bd9653f200f220920489ca2b5937696c3183604051808215151515815260200191505060405180910390a35050565b60006009600081819054906101000a900463ffffffff168092919060010191906101000a81548163ffffffff021916908363ffffffff1602179055505061134f84600960009054906101000a900463ffffffff1663ffffffff16611c60565b6113b5600960009054906101000a900463ffffffff1663ffffffff1684848080601f016020809104026020016040519081016040528093929190818152602001838380828437600081840152601f19601f82011690508083019250505050505050611e7c565b600960009054906101000a900463ffffffff16600a60008673ffffffffffffffffffffffffffffffffffffffff1673ffffffffffffffffffffffffffffffffffffffff16815260200190815260200160002060006101000a81548163ffffffff021916908363ffffffff160217905550600960009054906101000a900463ffffffff1690509392505050565b61145261144c6118f5565b836118fd565b15156114a9576040517f08c379a00000000000000000000000000000000000000000000000000000000081526004018080602001828103825260318152602001806127926031913960400191505060405180910390fd5b6114b584848484611f08565b50505050565b60606114c682611883565b151561151d576040517f08c379a000000000000000000000000000000000000000000000000000000000815260040180806020018281038252602f815260200180612742602f913960400191505060405180910390fd5b6060600860008481526020019081526020016000208054600181600116156101000203166002900480601f0160208091040260200160405190810160405280929190818152602001828054600181600116156101000203166002900480156115c65780601f1061159b576101008083540402835291602001916115c6565b820191906000526020600020905b8154815290600101906020018083116115a957829003601f168201915b505050505090506000815114156115ef57604051806020016040528060008152509150506116bc565b60078160405160200180838054600181600116156101000203166002900480156116505780601f1061162e576101008083540402835291820191611650565b820191906000526020600020905b81548152906001019060200180831161163c575b505082805190602001908083835b602083101515611683578051825260208201915060208101905060208303925061165e565b6001836020036101000a038019825116818451168082178552505050505050905001925050506040516020818303038152906040529150505b919050565b6000600460008473ffffffffffffffffffffffffffffffffffffffff1673ffffffffffffffffffffffffffffffffffffffff16815260200190815260200160002060008373ffffffffffffffffffffffffffffffffffffffff1673ffffffffffffffffffffffffffffffffffffffff16815260200190815260200160002060009054906101000a900460ff16905092915050565b61176685858563ffffffff166119f3565b6117ba8363ffffffff1683838080601f016020809104026020016040519081016040528093929190818152602001838380828437600081840152601f19601f82011690508083019250505050505050611e7c565b600a60008673ffffffffffffffffffffffffffffffffffffffff1673ffffffffffffffffffffffffffffffffffffffff16815260200190815260200160002060006101000a81549063ffffffff0219169055600960009054906101000a900463ffffffff16600a60008673ffffffffffffffffffffffffffffffffffffffff1673ffffffffffffffffffffffffffffffffffffffff16815260200190815260200160002060006101000a81548163ffffffff021916908363ffffffff1602179055505050505050565b6000806001600084815260200190815260200160002060009054906101000a900473ffffffffffffffffffffffffffffffffffffffff169050600073ffffffffffffffffffffffffffffffffffffffff168173ffffffffffffffffffffffffffffffffffffffff161415915050919050565b600033905090565b600061190882611883565b151561195f576040517f08c379a000000000000000000000000000000000000000000000000000000000815260040180806020018281038252602c81526020018061260a602c913960400191505060405180910390fd5b600061196a83610e51565b90508073ffffffffffffffffffffffffffffffffffffffff168473ffffffffffffffffffffffffffffffffffffffff1614806119d957508373ffffffffffffffffffffffffffffffffffffffff166119c184610af8565b73ffffffffffffffffffffffffffffffffffffffff16145b806119ea57506119e981856116c1565b5b91505092915050565b8273ffffffffffffffffffffffffffffffffffffffff16611a1382610e51565b73ffffffffffffffffffffffffffffffffffffffff16141515611a81576040517f08c379a00000000000000000000000000000000000000000000000000000000081526004018080602001828103825260298152602001806127196029913960400191505060405180910390fd5b600073ffffffffffffffffffffffffffffffffffffffff168273ffffffffffffffffffffffffffffffffffffffff1614151515611b09576040517f08c379a00000000000000000000000000000000000000000000000000000000081526004018080602001828103825260248152602001806125e66024913960400191505060405180910390fd5b611b1281611f7c565b611b59600360008573ffffffffffffffffffffffffffffffffffffffff1673ffffffffffffffffffffffffffffffffffffffff16815260200190815260200160002061203c565b611ba0600360008473ffffffffffffffffffffffffffffffffffffffff1673ffffffffffffffffffffffffffffffffffffffff16815260200190815260200160002061205f565b816001600083815260200190815260200160002060006101000a81548173ffffffffffffffffffffffffffffffffffffffff021916908373ffffffffffffffffffffffffffffffffffffffff160217905550808273ffffffffffffffffffffffffffffffffffffffff168473ffffffffffffffffffffffffffffffffffffffff167fddf252ad1be2c89b69c2b068fc378daa952ba7f163c4a11628f55a4df523b3ef60405160405180910390a4505050565b600081600001549050919050565b600073ffffffffffffffffffffffffffffffffffffffff168273ffffffffffffffffffffffffffffffffffffffff1614151515611d05576040517f08c379a00000000000000000000000000000000000000000000000000000000081526004018080602001828103825260208152602001807f4552433732313a206d696e7420746f20746865207a65726f206164647265737381525060200191505060405180910390fd5b611d0e81611883565b151515611d83576040517f08c379a000000000000000000000000000000000000000000000000000000000815260040180806020018281038252601c8152602001807f4552433732313a20746f6b656e20616c7265616479206d696e7465640000000081525060200191505060405180910390fd5b816001600083815260200190815260200160002060006101000a81548173ffffffffffffffffffffffffffffffffffffffff021916908373ffffffffffffffffffffffffffffffffffffffff160217905550611e1c600360008473ffffffffffffffffffffffffffffffffffffffff1673ffffffffffffffffffffffffffffffffffffffff16815260200190815260200160002061205f565b808273ffffffffffffffffffffffffffffffffffffffff16600073ffffffffffffffffffffffffffffffffffffffff167fddf252ad1be2c89b69c2b068fc378daa952ba7f163c4a11628f55a4df523b3ef60405160405180910390a45050565b611e8582611883565b1515611edc576040517f08c379a000000000000000000000000000000000000000000000000000000000815260040180806020018281038252602c8152602001806126ed602c913960400191505060405180910390fd5b80600860008481526020019081526020016000209080519060200190611f0392919061250e565b505050565b611f138484846119f3565b611f1f84848484612075565b1515611f76576040517f08c379a00000000000000000000000000000000000000000000000000000000081526004018080602001828103825260328152602001806125b46032913960400191505060405180910390fd5b50505050565b600073ffffffffffffffffffffffffffffffffffffffff166002600083815260200190815260200160002060009054906101000a900473ffffffffffffffffffffffffffffffffffffffff1673ffffffffffffffffffffffffffffffffffffffff161415156120395760006002600083815260200190815260200160002060006101000a81548173ffffffffffffffffffffffffffffffffffffffff021916908373ffffffffffffffffffffffffffffffffffffffff1602179055505b50565b612054600182600001546123b790919063ffffffff16565b816000018190555050565b6001816000016000828254019250508190555050565b60006120968473ffffffffffffffffffffffffffffffffffffffff16612401565b15156120a557600190506123af565b600060608573ffffffffffffffffffffffffffffffffffffffff168673ffffffffffffffffffffffffffffffffffffffff1663150b7a02905060e01b6120e96118f5565b898888604051602401808573ffffffffffffffffffffffffffffffffffffffff1673ffffffffffffffffffffffffffffffffffffffff1681526020018473ffffffffffffffffffffffffffffffffffffffff1673ffffffffffffffffffffffffffffffffffffffff16815260200183815260200180602001828103825283818151815260200191508051906020019080838360005b8381101561219957808201518184015260208101905061217e565b50505050905090810190601f1680156121c65780820380516001836020036101000a031916815260200191505b5095505050505050604051602081830303815290604052907bffffffffffffffffffffffffffffffffffffffffffffffffffffffff19166020820180517bffffffffffffffffffffffffffffffffffffffffffffffffffffffff83818316178352505050506040518082805190602001908083835b602083101515612260578051825260208201915060208101905060208303925061223b565b6001836020036101000a0380198251168184511680821785525050505050509050019150506000604051808303816000865af19150503d80600081146122c2576040519150601f19603f3d011682016040523d82523d6000602084013e6122c7565b606091505b5091509150811515612337576000815111156122e65780518082602001fd5b6040517f08c379a00000000000000000000000000000000000000000000000000000000081526004018080602001828103825260328152602001806125b46032913960400191505060405180910390fd5b600081806020019051602081101561234e57600080fd5b8101908080519060200190929190505050905063150b7a0260e01b7bffffffffffffffffffffffffffffffffffffffffffffffffffffffff1916817bffffffffffffffffffffffffffffffffffffffffffffffffffffffff19161493505050505b949350505050565b60006123f983836040518060400160405280601e81526020017f536166654d6174683a207375627472616374696f6e206f766572666c6f77000081525061244c565b905092915050565b60008060007fc5d2460186f7233c927e7db2dcc703c0e500b653ca82273b7bfad8045d85a47060001b9050833f915080821415801561244357506000801b8214155b92505050919050565b600083831115829015156124fb576040517f08c379a00000000000000000000000000000000000000000000000000000000081526004018080602001828103825283818151815260200191508051906020019080838360005b838110156124c05780820151818401526020810190506124a5565b50505050905090810190601f1680156124ed5780820380516001836020036101000a031916815260200191505b509250505060405180910390fd5b5060008385039050809150509392505050565b828054600181600116156101000203166002900490600052602060002090601f016020900481019282601f1061254f57805160ff191683800117855561257d565b8280016001018555821561257d579182015b8281111561257c578251825591602001919060010190612561565b5b50905061258a919061258e565b5090565b6125b091905b808211156125ac576000816000905550600101612594565b5090565b9056fe4552433732313a207472616e7366657220746f206e6f6e20455243373231526563656976657220696d706c656d656e7465724552433732313a207472616e7366657220746f20746865207a65726f20616464726573734552433732313a206f70657261746f7220717565727920666f72206e6f6e6578697374656e7420746f6b656e4552433732313a20617070726f76652063616c6c6572206973206e6f74206f776e6572206e6f7220617070726f76656420666f7220616c6c4552433732313a2062616c616e636520717565727920666f7220746865207a65726f20616464726573734552433732313a206f776e657220717565727920666f72206e6f6e6578697374656e7420746f6b656e4552433732313a20617070726f76656420717565727920666f72206e6f6e6578697374656e7420746f6b656e4552433732314d657461646174613a2055524920736574206f66206e6f6e6578697374656e7420746f6b656e4552433732313a207472616e73666572206f6620746f6b656e2074686174206973206e6f74206f776e4552433732314d657461646174613a2055524920717565727920666f72206e6f6e6578697374656e7420746f6b656e4552433732313a20617070726f76616c20746f2063757272656e74206f776e65724552433732313a207472616e736665722063616c6c6572206973206e6f74206f776e6572206e6f7220617070726f766564a165627a7a72305820ef7b64ffc8171655ccfebce0b9c765e7323c65a1437be6592a33690d6688eac80029",
  "source": "// SPDX-License-Identifier : MIT\r\npragma solidity ^0.5.0;\r\n\r\nimport \"openzeppelin-solidity/contracts/token/ERC721/ERC721Metadata.sol\";\r\n\r\ncontract Mansions is ERC721Metadata{\r\n    uint32 public Id;\r\n    mapping(address => uint32) public MDTrack;\r\n\r\n    constructor () ERC721Metadata(\"Mansions Toekn\", \"MTN\") payable public{\r\n        Id = 0;\r\n    }\r\n\r\n    function createNFT(address receiver, string calldata metadata) external returns (uint32)    {\r\n        Id++;\r\n        _mint(receiver, Id);\r\n        _setTokenURI(Id, metadata);\r\n        MDTrack[receiver] = Id;\r\n        return Id;\r\n    }\r\n\r\n    function transferNFT(address sender, address receiver, uint32 transId, string calldata metadata) external{\r\n        _transferFrom(sender, receiver, transId);\r\n        _setTokenURI(transId, metadata);\r\n        delete MDTrack[sender];\r\n        MDTrack[receiver] = Id;\r\n    }\r\n}\r\n",
  "sourcePath": "C:\\Users\\Hp\\Documents\\WorkSpace\\Blockchain\\tokenwallets\\contracts\\Mansions.sol",
  "compiler": {
    "name": "solc",
    "version": "0.5.5+commit.47a71e8f.Emscripten.clang"
  },
  "schemaVersion": "3.4.16",
  "updatedAt": "2023-11-28T13:19:27.341Z",
  "networkType": "ethereum",
  "devdoc": {
    "methods": {
      "approve(address,uint256)": {
        "details": "Approves another address to transfer the given token ID The zero address indicates there is no approved address. There can only be one approved address per token at a given time. Can only be called by the token owner or an approved operator.",
        "params": {
          "to": "address to be approved for the given token ID",
          "tokenId": "uint256 ID of the token to be approved"
        }
      },
      "balanceOf(address)": {
        "details": "Gets the balance of the specified address.",
        "params": {
          "owner": "address to query the balance of"
        },
        "return": "uint256 representing the amount owned by the passed address"
      },
      "baseURI()": {
        "details": "Returns the base URI set via {_setBaseURI}. This will be automatically added as a preffix in {tokenURI} to each token's URI, when they are non-empty.    * _Available since v2.5.0._"
      },
      "getApproved(uint256)": {
        "details": "Gets the approved address for a token ID, or zero if no address set Reverts if the token ID does not exist.",
        "params": {
          "tokenId": "uint256 ID of the token to query the approval of"
        },
        "return": "address currently approved for the given token ID"
      },
      "isApprovedForAll(address,address)": {
        "details": "Tells whether an operator is approved by a given owner.",
        "params": {
          "operator": "operator address which you want to query the approval of",
          "owner": "owner address which you want to query the approval of"
        },
        "return": "bool whether the given operator is approved by the given owner"
      },
      "name()": {
        "details": "Gets the token name.",
        "return": "string representing the token name"
      },
      "ownerOf(uint256)": {
        "details": "Gets the owner of the specified token ID.",
        "params": {
          "tokenId": "uint256 ID of the token to query the owner of"
        },
        "return": "address currently marked as the owner of the given token ID"
      },
      "safeTransferFrom(address,address,uint256)": {
        "details": "Safely transfers the ownership of a given token ID to another address If the target address is a contract, it must implement {IERC721Receiver-onERC721Received}, which is called upon a safe transfer, and return the magic value `bytes4(keccak256(\"onERC721Received(address,address,uint256,bytes)\"))`; otherwise, the transfer is reverted. Requires the msg.sender to be the owner, approved, or operator",
        "params": {
          "from": "current owner of the token",
          "to": "address to receive the ownership of the given token ID",
          "tokenId": "uint256 ID of the token to be transferred"
        }
      },
      "safeTransferFrom(address,address,uint256,bytes)": {
        "details": "Safely transfers the ownership of a given token ID to another address If the target address is a contract, it must implement {IERC721Receiver-onERC721Received}, which is called upon a safe transfer, and return the magic value `bytes4(keccak256(\"onERC721Received(address,address,uint256,bytes)\"))`; otherwise, the transfer is reverted. Requires the _msgSender() to be the owner, approved, or operator",
        "params": {
          "_data": "bytes data to send along with a safe transfer check",
          "from": "current owner of the token",
          "to": "address to receive the ownership of the given token ID",
          "tokenId": "uint256 ID of the token to be transferred"
        }
      },
      "setApprovalForAll(address,bool)": {
        "details": "Sets or unsets the approval of a given operator An operator is allowed to transfer all tokens of the sender on their behalf.",
        "params": {
          "approved": "representing the status of the approval to be set",
          "to": "operator address to set the approval"
        }
      },
      "supportsInterface(bytes4)": {
        "details": "See {IERC165-supportsInterface}.     * Time complexity O(1), guaranteed to always use less than 30 000 gas."
      },
      "symbol()": {
        "details": "Gets the token symbol.",
        "return": "string representing the token symbol"
      },
      "tokenURI(uint256)": {
        "details": "Returns the URI for a given token ID. May return an empty string.     * If the token's URI is non-empty and a base URI was set (via {_setBaseURI}), it will be added to the token ID's URI as a prefix.     * Reverts if the token ID does not exist."
      },
      "transferFrom(address,address,uint256)": {
        "details": "Transfers the ownership of a given token ID to another address. Usage of this method is discouraged, use {safeTransferFrom} whenever possible. Requires the msg.sender to be the owner, approved, or operator.",
        "params": {
          "from": "current owner of the token",
          "to": "address to receive the ownership of the given token ID",
          "tokenId": "uint256 ID of the token to be transferred"
        }
      }
    }
  },
  "userdoc": {
    "methods": {}
  }
}